:100000000000022055FA00007DFA00007FFA00008F
:1000100081FA000083FA000085FA00000000000069
:1000200000000000000000000000000087FA00004F
:1000300089FA0000000000008BFA00008DFA000031
:100040008FFA00002D8E00004D0101001D010100FE
:10005000290101008FFA00003DF100008FFA000035
:1000600031F8000039F8000041F800008FFA000074
:100070008FFA00008FFA00008FFA00008FFA00005C
:100080008FFA00008FFA00008FFA00004101010092
:100090008FFA00008FFA00008FFA00008FFA00003C
:1000A0008FFA00008FFA000049F8000051F80000B4
:1000B0008FFA00008FFA000000000000000000002E
:1000C0008FFA00008FFA00008FFA0000350101005E
:1000D0008FFA00008FFA00008FFA00000000000085
:1000E0000000000000000000000000000000000010
:1000F0000000000000000000000000000000000000
:1001000000000000000000000000000000000000EF
:1001100000000000000000000000000000000000DF
:1001200000000000000000000000000000000000CF
:1001300000000000000000000000000000000000BF
:1001400000000000000000000000000000000000AF
:10015000000000000000000000000000000000009F
:10016000000000000000000000000000000000008F
:10017000000000000000000000000000000000007F
:10018000000000000000000000000000000000006F
:10019000000000000000000000000000000000005F
:1001A000000000000000000000000000000000004F
:1001B000000000000000000000000000000000003F
:1001C000000000000000000000000000000000002F
:1001D000000000000000000000000000000000001F
:1001E000000000000000000000000000000000000F
:1001F00000000000000000000000000000000000FF
:100200002DE9F04F0378202B83B00446894603D1B3
:1002100014F8013F202BFBD02B2B08BF013494F89E
:1002200000E0BEF12D0F00F086809FED577BBEF100
:10023000300F8DED007B00F08A80BEF1000F00F0E2
:100240009D80002600274FF0000ADFF84CB14FF0E8
:1002500000081CE012F09EFB06460F46284612F0EE
:1002600033FB32463B4612F0E3F9524606460F4650
:100270005B46DDE90001B8F1000F03D012F0B4FCD9
:10028000CDE9000114F801EFBEF1000F14D0AEF17A
:100290003005092D52465B4630463946DAD9B8F169
:1002A000000F18D1BEF12E0F15D114F801EF4FF049
:1002B0000108BEF1000FEAD132463B46DDE90001FC
:1002C00012F068FB06460F46C9F800403046394632
:1002D00003B0BDE8F08F0EF0DF0EBEF1450F08D081
:1002E0002378202B03D114F8013F202BFBD0002BC7
:1002F00041D1DDE900233046394612F04BFB23782B
:1003000006460F46002BDFD04946601C0A2212F039
:1003100073F921490246002012F09CFE02460B466A
:100320003046394612F036FB06460F46304639460F
:1003300003B0BDE8F08F94F801E09FED157BBEF1AE
:10034000300F8DED007B04F101047FF476AF63780C
:1003500043F02003782B7FF474AF102249462046E7
:1003600012F04AF912F0B0FADDE9002312F012FBA4
:1003700006460F46AAE70026084FA7E700260027F3
:100380009AE700BFAFF30080000000000000F03FDC
:10039000000000000000F0BF000024400000F87FD3
:1003A0002DE9F84F16460023002204460D4612F0B0
:1003B00063FD002840F09D8000220023204629464E
:1003C00012F050FD28B13022002332707370BDE866
:1003D000F88F2046294610F06FFD12F08BFD7BA3AD
:1003E000D3E9002381462946204612F045FD002826
:1003F00000F08680B9F1000FC0F2BE804A460020AE
:100400006F4912F027FE02460B462046294612F09D
:10041000EBFB04460D4666A1D1E9000101274FF030
:10042000000822462B4612F0B5FA0022654B12F066
:10043000FFF812F04BFE002FCC464FF0FF3AC146BA
:100440004FF0000840F38580DFF888E15E4C012220
:10045000AEF1700945F6F3254FF02E0BA94208BF07
:10046000A0424FF0300309D3001B61EB0501A94204
:1004700008BFA04203F10103F6D2DBB2337050EAA9
:10048000010306F1010409D1BA4210DACE4502F1A6
:1004900001020CD026467EE80245DFE7BA4204BFDF
:1004A00086F801B0B41CCE4502F10102F2D1B8F1D8
:1004B000000F0DD02246302102F8011BC2F10103CA
:1004C00053442344002BF7DC2AEAEA7301331C442B
:1004D000BCF1010F4CD06523BCF1000F2370C5BFE8
:1004E0002B236370611CA11C6046BDE8F84F09F026
:1004F000C5BA05F100431D462D23337001365BE775
:100500002DA3D3E900232046294612F0D3FC00286E
:100510007FF470AFB9F10E0F09F101073DDDA9F1CC
:100520000E0842460020264912F094FD02460B4672
:100530002046294612F058FB0022224B12F078F890
:1005400012F0C4FD002FA9F10F0A4FF0010C3FF784
:100550007BAF334630222E2403F8022B74707FEADF
:10056000090618D01E4403F8012BB342FBD16BE7F8
:1005700000232370BDE8F88FC9F100020020104964
:1005800012F068FD02460B462046294612F002FA98
:1005900004460D463FE71E4656E7C9F10E0200200D
:1005A0000749C84612F056FD4FF0010939E700BF70
:1005B0000000901EC4BCD64250EFE2D6E41A4B4471
:1005C000000024400000E03F00407A108DEDB5A00F
:1005D000F7C6B03E783B010070B54FF0FF3004F035
:1005E000E3FF04466FF07F4004F0DEFF064620463E
:1005F00012F05AF900220C4B12F0CCF904463046A6
:100600000D4612F051F906A3D3E9002312F0ECFADB
:1006100002460B462046294612F00AF870BD00BF7C
:100620000000E0DFFFFF6F430000F03D000000002E
:1006300008B50AF001FDDFED0C7A07EE100A67EE4F
:10064000277A17EE900A12F051F905A3D3E9002397
:1006500012F0CAFA12F04EFC08BD00BFAFF30080E2
:10066000EA2E4454FB2119400000B443000000006E
:1006700008B50AF0F5FCDFED0C7A07EE100A67EE1C
:10068000277A17EE900A12F031F905A3D3E9002377
:1006900012F0AAFA12F02EFC08BD00BFAFF30080E2
:1006A000EA2E4454FB2119400000B443000000002E
:1006B00070B52DED068B044684B0406CDFED34AA96
:1006C0000AF0CEFC0646606C0AF0B6FC0222214617
:1006D000054601A80AF0FAFDDDED027AB8EEE78AD8
:1006E000DDED037A3046B8EEE79A10F045F90AEEF0
:1006F000100A304610F0F4F809EE900A284610F07F
:100700003BF908EE900A284610F0EAF868EE287ADD
:100710009DED017A06EE900AB8EEC77A67EE8A7A06
:1007200029EEC88AE7EE267A69EE288AA9EE0A8AB7
:10073000E9EEA87A18EE101A17EE900A10F002FDF2
:1007400007EE900A67EEAA7A17EE900A12F0CEF83A
:100750000DA3D3E9002312F047FA12F013FCDFEDEA
:100760000D7A07EE100A77EEC77AF5EEC07AF1EE51
:1007700010FA48BF77EEAA7AFDEEE77A17EE900AF4
:1007800004B0BDEC068B70BDEA2E4454FB21194029
:100790000000B4430000B44200B585B00122014618
:1007A00001A80AF093FDDDED027AF8EEE77A17EE84
:1007B000901ADDED017AF8EEE77A17EE900A10F064
:1007C000C1FCDFED137A07EE100A67EE277A17EE09
:1007D000900A12F08BF80CA3D3E9002312F004FA6C
:1007E00012F0D0FB07EE900AF5EEC07AF1EE10FAA7
:1007F00044BF9FED087A77EE877AFDEEE77A17EE31
:10080000900A05B05DF804FBEA2E4454FB21094030
:10081000000034430000B443494A21F000439342AE
:100820002DE9704304460D464BDC464A93420E4682
:100830000EDC3FA3D3E9002311F0FAFE0022424B65
:1008400012F038FB00284CD020462946BDE87083C2
:100850003E4A93423BDCB3F1804F42DD0FF026FF6E
:100860002246804689462B462046294612F092F8B9
:100870000022354B11F0DCFE10F08AFD02460B46DB
:100880004046494611F0D4FE02460B4600202E4950
:1008900012F0AAF9424604460D464B4640464946E8
:1008A00011F0C6FE02460B462046294611F0C0FE56
:1008B00001F0DAFE002EC9DC01F100431946BDE863
:1008C000708302460B4611F0B3FEBDE870830FF053
:1008D000EDFE01F0C9FE18A3D3E9002311F0A8FE34
:1008E000E8E722462B462046294612F053F8804678
:1008F0008946204629460FF0D9FE002204460D46BF
:10090000114B4046494611F093FE10F041FD002284
:100910000D4B11F08DFE02460B464046494612F043
:1009200063F922462B4611F083FE00F0C5FAC1E7B9
:100930009C7500883CE4377EEF39FAFE422EE63F94
:10094000FFFFEF7FFFFF2F3E0000F03F0000B041B0
:100950002DE9F84FC44B21F000469E4204460D4657
:100960008A460EDDC14B9E4200F3AC8000F0A780AA
:10097000BAF1000F40F3EA809FA1D1E90001BDE880
:10098000F88FBB4B9E4200F3B580A3F1DE739E420D
:1009900040F3A0804FF0FF3B22462B4620462946DD
:1009A00011F0F8FF02460B468046894611F0F2FF2F
:1009B00093A3D3E9002306460F4611F0EBFF92A361
:1009C000D3E9002311F034FE32463B4611F0E2FF3A
:1009D0008FA3D3E9002311F02BFE32463B4611F0E2
:1009E000D9FF8DA3D3E9002311F022FE32463B4606
:1009F00011F0D0FF8AA3D3E9002311F019FE32468B
:100A00003B4611F0C7FF88A3D3E9002311F010FE85
:100A100042464B4611F0BEFF85A3D3E90023804632
:100A200089463046394611F0B5FF83A3D3E9002348
:100A300011F0FCFD32463B4611F0ACFF80A3D3E938
:100A4000002311F0F3FD32463B4611F0A3FF7EA3D5
:100A5000D3E9002311F0EAFD32463B4611F09AFF3C
:100A60007BA3D3E9002311F0E1FD32463B4611F0B0
:100A700091FFBBF1FF3F02460B466CD04046494612
:100A800011F0D6FD22462B4611F084FF794E7A4BA9
:100A90004FEACB0B5E449B44DBE9002311F0C6FD1B
:100AA00022462B4611F0C2FD02460B46D6E9000154
:100AB00011F0BCFDBAF1000F43DBBDE8F88F002850
:100AC0003FF456AF22462B462046294611F0B0FD92
:100AD000BDE8F88F60A3D3E9002311F0A9FD00223F
:100AE000664B12F0E7F900283FF454AF2046294640
:100AF000BDE8F88F0FF0DAFD614B9E4204460D46CB
:100B000039DCA3F550239E425EDC02460B4611F011
:100B10008FFD0022594B11F089FD002206460F4639
:100B20004FF080432046294611F082FD02460B46D5
:100B30003046394612F058F84FF0000B04460D4687
:100B40002AE701F100431946BDE8F88F44A1D1E935
:100B50000001BDE8F88F4046494611F069FD224684
:100B60002B4611F017FF02460B462046294611F08E
:100B70005DFDBDE8F88F434B9E421ADC0022424BDC
:100B800011F054FD002206460F463F4B20462946F1
:100B900011F000FF0022394B11F04AFD02460B46CE
:100BA0003046394612F020F84FF0020B04460D464D
:100BB000F2E602460B460020344912F015F84FF0D9
:100BC000030B04460D46E7E600222C4B11F02EFDE8
:100BD000002206460F46294B2046294611F028FDE3
:100BE00002460B463046394611F0FEFF4FF0010B2E
:100BF00004460D46D0E600BF182D4454FB21F93FB2
:100C000011DA22E33AAD903FEB0D76244B7BA93FFE
:100C1000513DD0A0660DB13F6E204CC5CD45B73FCC
:100C2000FF8300922449C23F0D5555555555D53F78
:100C30002F6C6A2C44B4A2BF9AFDDE522DDEAD3F6C
:100C40006D9A74AFF2B0B33F711623FEC671BC3F0C
:100C5000C4EB98999999C93F9C7500883CE4377E0C
:100C6000182D4454FB21F9BFFFFF0F440000F07F13
:100C7000FFFFDB3F883B0100A83B01000000F03F85
:100C8000FFFFF23FFF7F03400000F83F0000F0BF8E
:100C90002DE9F843C1F30A59A9F2FF35132D024695
:100CA0000B460C4606468846074622DC002D50DBE4
:100CB000DFF8F09049FA05F901EA090E5EEA060646
:100CC0001CD036A3D3E9002311F0B2FC002200238C
:100CD00012F0F0F848B1002C04DD4FF4801343FA11
:100CE00005F5A84428EA0904002721463846BDE84E
:100CF000F883332D06DDB5F5806F3DD010461946DB
:100D0000BDE8F883A9F213494FF0FF3E2EFA09F926
:100D100010EA090FF2D021A3D3E9002311F088FCD7
:100D20000022002312F0C6F80028DED0002C09DDD6
:100D3000142D2BD00127C5F1340507FA05F5AE199E
:100D400028BFB844444626EA090721463846BDE88C
:100D5000F88312A3D3E9002311F06AFC00220023D8
:100D600012F0A8F80028C0D0002C0BDB54EA0607CC
:100D700006D00027084CB8E711F05AFCBDE8F8830C
:100D80003C46B2E700274FF00044AEE704F101080B
:100D9000D8E700BFAFF300800000F03F9C750088EB
:100DA0003CE4377EFFFF0F002DE9F041C1F30A5705
:100DB000A7F2FF35132D02460B460C468846064621
:100DC0001CDC002D3FDB3A4F2F41864601EA070C21
:100DD0005CEA0E0E17D034A3D3E9002311F028FCEF
:100DE0000022002312F066F820B1002C3FDB28EA35
:100DF0000704002621463046BDE8F081332D06DD8C
:100E0000B5F5806F2FD010461946BDE8F081A7F2E6
:100E100013474FF0FF3E2EFA07F73842F3D022A3D4
:100E2000D3E9002311F004FC0022002312F042F861
:100E30000028DFD0002C20DB444626EA07062146A6
:100E40003046BDE8F08118A3D3E9002311F0F0FB90
:100E50000022002312F02EF80028CBD0002C17DB44
:100E600000263446C6E711F0E3FBBDE8F0814FF4FD
:100E7000801343FA05F5A844B9E7142D10D00123D7
:100E8000C5F1340503FA05F5AE1928BF9844D3E738
:100E900024F00042074B324318BF1C460026A9E746
:100EA00004F10108C8E700BF9C7500883CE4377E68
:100EB000FFFF0F000000F0BF2DE9F04FD84B994223
:100EC00087B0804689460E4613DCD64B21F000449D
:100ED0009C4218DD0022D44B11F0C4FF002879D0C9
:100EE000002200230020D14911F07EFE07B0BDE8AA
:100EF000F08FCF4B99422FDD42464B4611F098FBC5
:100F000007B0BDE8F08FCB4B9C4270DDCA4B1E444E
:100F10009E427ED80022C94B4046494611F088FBCC
:100F20004FEA215AAAF2FF3ABAF1000F04460D46E1
:100F30000E4640F3DE8142464B4611F077FB0246F7
:100F40000B460020BD4911F071FB22462B4611F0E3
:100F50004BFECDE902010BE0B94B9E42DADD9FED7D
:100F60009A7B8DED027B4FEA265A4446AAF2FF3A5D
:100F7000B44BC6F313069E4246F07F5500F3E7805C
:100F800045F44015204629460022AC4B11F04EFB9B
:100F9000002204460D46AC4B11F0FCFC22462B46C9
:100FA00011F0F8FCA046CDE90401A946CDE9000105
:100FB000002E3AD1002200232046294611F052FF8C
:100FC000002800F0CE80BAF1000F40F074810020BC
:100FD000002195E742464B464046314611F026FB3C
:100FE00002460B4611F000FE07B0BDE8F08F00226C
:100FF000964B11F01DFB0022002311F05BFF00282F
:1010000000F0CC80924B9C4200F3C8804046494699
:1010100076E700228C4B11F0BDFC42464B4611F0A6
:10102000B9FCCDE900014FF0000A00224FF08043E7
:101030004046494611F0FCFA02460B4640464946F6
:1010400011F0D2FD02460B4606460F4611F0A2FCF7
:101050005FA3D3E9002304460D4611F09BFC5EA379
:10106000D3E9002311F0E4FA22462B4611F092FC5A
:101070005BA3D3E9002311F0DBFA22462B4611F0E3
:1010800089FC59A3D3E9002311F0D2FA22462B465A
:1010900011F080FC56A3D3E9002311F0C9FA2246CF
:1010A0002B4611F077FC54A3D3E9002311F0C0FACA
:1010B00022462B4611F06EFC51A3D3E9002311F018
:1010C000B7FA22462B4611F065FC04460D46BAF1EC
:1010D000000F00F0BF80504611F0F6FB4AA3D3E9A1
:1010E000002382468B4611F055FCDDE90023CDE953
:1010F00004012046294611F09BFA32463B4611F086
:1011000049FC43A3D3E9002304460D465046594603
:1011100011F040FCDDE9022311F08AFA02460B4689
:101120002046294611F084FA02460B46DDE900010B
:1011300011F07CFA42464B4611F078FA02460B4613
:10114000DDE9040111F072FA07B0BDE8F08F45F453
:101150000015C6F5801620462946B6100AF1010A88
:1011600012E72DA3D3E900232046294611F012FCF3
:1011700002460B460020314911F058FADDE90423FC
:1011800011F008FC06460F46BAF1000F73D1024673
:101190000B462046294611F049FAB1E642464B4635
:1011A0004046494611F0F6FB0022274B11F0F2FBB6
:1011B00002460B464046494611F038FA07B0BDE8F2
:1011C000F08F00BFAFF300800000000000000000BF
:1011D00044523EDF12F1C23F9FC678D0099AC33F06
:1011E000DE03CB966446C73FAF788E1DC571CC3FFA
:1011F000599322942449D23F04FA97999999D93F57
:10120000935555555555E53F0000E0FE422EE63F0B
:10121000763C7935EF39EA3D555555555555E53FFD
:101220007982DA3FFFFFEF3F0000F0BF000050C3BC
:10123000FFFFEF7FFFFF1F3E3C412D400000F03FCE
:10124000FFFF3F439DA006000000E03F0000504329
:10125000FFFF8F3CDDE9004522462B4611F0E8F9FF
:1012600032463B4611F096FB02460B462046294685
:1012700011F0DCF99CE7504611F026FB23A3D3E9DB
:10128000002382468B4611F085FB22A3D3E900237D
:10129000804689465046594611F07CFBDDE9022321
:1012A00011F0C6F902460B463046394611F0BEF938
:1012B00022462B46DCE7504611F006FB15A3D3E986
:1012C000002306460F4611F065FBDDE9022311F00D
:1012D000AFF90EA3D3E9002304460D463046394644
:1012E00011F058FB02460B462046294611F0A0F9A2
:1012F00006E60022044B11F099F902460B464046DF
:10130000494611F093F920E60000F03F0000E0FEAE
:10131000422EE63F763C7935EF39EA3D0000000089
:1013200008B50FF049FD04A3D3E9002311F05CFCDC
:1013300008BD00BFAFF30080EF39FAFE422EE63F52
:101340002DE9F043DFF8B4808BB004460D4600F081
:1013500063FF98F90030013306460F462BD0224632
:101360002B462046294611F0AFFD814618BB20468A
:1013700029460FF09BF91FA3D3E9002311F09AFD32
:10138000C8B1194A98F90030CDF820900321CDE971
:101390000445CDE902458DE806008BB9134B4FF0AB
:1013A0006042CDE90623684610F0EEFE70B1089B5E
:1013B0009BB9DDE90667304639460BB0BDE8F083DE
:1013C0000B490020022BCDE90601ECD111F0BCF84D
:1013D00022230360089B002BEBD011F0B5F8089B8B
:1013E0000360E6E7AFF300803C4C0100FFFFEF47EE
:1013F0000000F07F7DF8B98FCE338640F0010020E9
:101400002DE9F043DFF8E4808BB004460D4600F090
:10141000B3FF98F90030013306460F4633D020461B
:10142000294610F0ABFE70B32CA3D3E9002320466D
:10143000294611F03FFD814650BB2AA3D3E9002382
:101440002046294611F018FDE8B198F90030204AED
:10145000CDF82090002600270421022BCDE9044579
:10146000CDE90245CDE906678DE8060029D068463A
:1014700010F08AFE28B3089B1BB111F065F8089B99
:101480000360DDE90667304639460BB0BDE8F083FE
:101490000F4A98F90030019203210022CDE904455A
:1014A000CDE90245009108922BB90A4B4FF06042FA
:1014B000CDE90623DBE708490020022BCDE9060130
:1014C000D5D111F041F822230360D4E7AFF30080B7
:1014D000444C0100FFFFEF470000F07FEF39FAFEB8
:1014E000422E864051302DD5104987C0F001002092
:1014F0002DE9F84FC44E21F00043B34204460D4697
:101500000DDD03F1404303F58013034340F0B98040
:10151000002940F3408100200021BDE8F88FBB4E38
:10152000B34240F3A6800029C0F2788102460B4600
:101530000020B74911F07AF80022B64B11F02AFAD0
:1015400004460D460FF024FF95A3D3E900238946F6
:1015500080462946204611F01DFA93A3D3E90023C3
:1015600011F066F822462B4611F014FA90A3D3E945
:10157000002311F05BF822462B4611F00BFA8EA3E4
:10158000D3E9002311F054F822462B4611F002FA59
:101590008BA3D3E9002311F049F822462B4611F022
:1015A000F9F989A3D3E9002311F042F822462B462A
:1015B00011F0F0F986A3D3E9002382468B4620463A
:1015C000294611F0E7F984A3D3E9002311F02EF89E
:1015D00022462B4611F0DEF981A3D3E9002311F056
:1015E00027F822462B4611F0D5F97FA3D3E9002333
:1015F00011F01CF822462B4611F0CCF90022844B46
:1016000011F016F802460B465046594611F0ECFA16
:1016100042464B4611F0BEF9002682468B463246C2
:101620004B463046494611F0B5F902460B46204676
:10163000294610F0FBFF324604460D464B46404615
:10164000494610F0F5FF02460B462046294611F0A8
:10165000CBFA02460B465046594610F0E9FF324697
:101660004B4610F0E5FF02460B4610F0E1FFBDE8E7
:10167000F88F694A93420EDC5DA1D1E90001BDE813
:10168000F88F02460B4610F0D1FF02460B4611F0D0
:10169000ABFABDE8F88F02460B4611F07BF940A388
:1016A000D3E9002306460F4611F074F93EA3D3E9AF
:1016B000002310F0BDFF32463B4611F06BF93CA30E
:1016C000D3E9002310F0B2FF32463B4611F062F935
:1016D00039A3D3E9002310F0ABFF32463B4611F0AB
:1016E00059F937A3D3E9002310F0A0FF32463B4657
:1016F00011F050F934A3D3E9002310F099FF3246DA
:101700003B4611F047F932A3D3E9002380468946CE
:101710003046394611F03EF92FA3D3E9002310F0EB
:1017200085FF32463B4611F035F92DA3D3E900235E
:1017300010F07EFF32463B4611F02CF92AA3D3E984
:10174000002310F073FF32463B4611F023F90022CC
:101750002F4B10F06DFF02460B464046494611F0F4
:1017600043FA22462B4611F015F902460B4622A1F8
:10177000D1E9000110F05AFF02460B4620462946E7
:1017800010F054FF02460B4619A1D1E9000110F0F8
:101790004DFFBDE8F88F1AA1D1E90001BDE8F88F2F
:1017A00009F7FD0DE13D023F88B20175E0EF493FC9
:1017B0003B8F68B52882A43F5544880E55C1C93F68
:1017C0007D6FEB0312D6D43F555555555555C53F42
:1017D00082922EB1C5B8B33F59018D1B6C06E63F0E
:1017E000C88A599CE52A00404B2D8A1C273A0340A1
:1017F000182D4454FB21F93F075C143326A6913C75
:10180000182D4454FB210940FFFFEF3FFFFFDF3F4E
:101810000000F03F0000E03F0000603C00225C4B15
:1018200010F006FF00225B4B11F0B4F840A3D3E99F
:10183000002304460D4611F0ADF83FA3D3E9002381
:1018400010F0F6FE22462B4611F0A4F83CA3D3E993
:10185000002310F0EBFE22462B4611F09BF83AA332
:10186000D3E9002310F0E4FE22462B4611F092F853
:1018700037A3D3E9002310F0D9FE22462B4611F0FE
:1018800089F835A3D3E9002310F0D2FE22462B4677
:1018900011F080F880468946204629460FF078FDF1
:1018A0002FA3D3E9002306460F462046294611F010
:1018B00071F82DA3D3E9002310F0B8FE22462B4681
:1018C00011F068F82AA3D3E9002310F0B1FE2246F4
:1018D0002B4611F05FF828A3D3E9002310F0A6FEF1
:1018E00022462B4611F056F80022294B10F0A0FE9C
:1018F00002460B464046494611F076F932463B46D1
:1019000011F048F81EA3D3E9002310F08FFE3246F1
:101910003B4610F08DFE02460B4610F089FE024653
:101920000B4619A1D1E9000110F080FEBDE8F88F47
:1019300009F7FD0DE13D023F88B20175E0EF493F37
:101940003B8F68B52882A43F5544880E55C1C93FD6
:101950007D6FEB0312D6D43F555555555555C53FB0
:1019600082922EB1C5B8B33F59018D1B6C06E63F7C
:10197000C88A599CE52A00404B2D8A1C273A03400F
:10198000075C143326A6913C182D4454FB210940D2
:101990000000F03F0000E03F434A91422DE9F84348
:1019A00004460D4639DD414A914209DD02F1795282
:1019B000914240DD02460B4610F03AFEBDE8F88346
:1019C00001F1404202F58012024330D0B1F1804F64
:1019D0003ADC0022364B10F029FE02460B46044644
:1019E0000D4610F025FE224606460F462B462046A1
:1019F000294610F0CFFF02460B463046394610F01C
:101A000017FE0FF0C5FC0B4602462946204610F093
:101A10000FFEBDE8F843FFF74FBA02460B4610F041
:101A200005FE02460B4611F0DFF8BDE8F883002002
:101A30000021BDE8F88300F017FE19A3D3E90023C5
:101A400010F0F6FDBDE8F88302460B4610F0A2FF49
:101A50000022174B10F0EAFD0FF09AFC2246804658
:101A600089462B462046294610F0E2FD42460646AE
:101A70000F464B462046294610F0DAFD02460B463B
:101A800000200B4911F0B0F80B46024639463046AB
:101A900010F0CCFDBDE8F84300F0E6BDAFF30080E8
:101AA000EF39FAFE422EE63FFFFFEF3FFFFFAF4167
:101AB0000000F03F000000002DE9F047BE4B21F090
:101AC0000048984584B004460D4612DD08F14048B0
:101AD00008F58018034658EA030321D002460B4656
:101AE00010F0A4FD02460B4611F07EF804B0BDE8EC
:101AF000F087B24B98458A4629DCB8F1795F80F2CD
:101B0000658191A3D3E9002310F092FD0022AC4B34
:101B100011F0D0F9D8B12046294604B0BDE8F087CD
:101B20008BA3D3E9002310F035FF8BA3D3E9002367
:101B300006460F462046294610F02CFF02460B466B
:101B40003046394610F074FD04B0BDE8F0872046F9
:101B500029460EF0ABFD02460B460020984910F0D6
:101B600065FD0022974B10F015FF7DA3D3E90023FC
:101B700004460D4610F00EFF7BA3D3E9002310F0BE
:101B800057FD22462B4610F005FF79A3D3E9002329
:101B900010F04CFD22462B4610F0FCFE76A3D3E954
:101BA000002310F045FD22462B4610F0F3FE74A3EF
:101BB000D3E9002310F03AFD22462B4610F0EAFE4E
:101BC00071A3D3E9002310F033FD22462B4610F019
:101BD000E1FE6FA3D3E90023CDE9000120462946A9
:101BE00010F0D8FE6CA3D3E9002310F01FFD2246AD
:101BF0002B4610F0CFFE6AA3D3E9002310F018FDA6
:101C000022462B4610F0C6FE67A3D3E9002310F04E
:101C10000DFD22462B4610F0BDFE694B002210F050
:101C200007FDCDE90201204629460FF0B1FB664BC6
:101C3000984506460F4666DCDDE90223DDE9000132
:101C400010F0D2FF3246CDE900013B46304639461E
:101C500010F0EEFC02460B46DDE9000110F09AFEA2
:101C60004FF00008CDE9000142463B464046394668
:101C700010F090FE02460B462046294610F0D6FC96
:101C8000424604460D463B463046394610F0D0FCED
:101C900002460B462046294610F0A6FF02460B4698
:101CA00010F0C6FC02460B462BA1D1E9000110F052
:101CB000BDFC02460B46DDE9000110F0B7FC4246D0
:101CC00004460D463B464046394610F0B1FC0246FC
:101CD0000B4637A1D1E9000110F0A8FC02460B46E3
:101CE0002046294610F0A2FC02460B4630A1D1E95D
:101CF000000110F09BFCBAF1000F3FF7F7AE01F1C5
:101D000000431946F2E6DDE90223DDE9000110F0A7
:101D10006BFF32463B4610F03DFE32463B4610F02C
:101D200087FC02460B4610F083FC0BA3D3E900238B
:101D300010F07CFC02460B4605A1D1E9000110F031
:101D400075FCD8E7AFF300809C7500883CE4377ED3
:101D5000182D4454FB21F93F075C143326A6913C0F
:101D600009F7FD0DE13D023F88B20175E0EF493F03
:101D70003B8F68B52882A43F5544880E55C1C93FA2
:101D80007D6FEB0312D6D43F555555555555C53F7C
:101D900082922EB1C5B8B33F59018D1B6C06E63F48
:101DA000C88A599CE52A00404B2D8A1C273A0340DB
:101DB000182D4454FB21E93FFFFFEF3FFFFFDF3FBA
:101DC0000000F03F0000E03F3233EF3F02460B4699
:101DD00010F0E0FD37A3D3E9002306460F4610F0CC
:101DE000D9FD36A3D3E9002310F022FC32463B464E
:101DF00010F0D0FD33A3D3E9002310F017FC3246D6
:101E00003B4610F0C7FD31A3D3E9002310F010FCCE
:101E100032463B4610F0BEFD2EA3D3E9002310F05E
:101E200005FC32463B4610F0B5FD2CA3D3E9002358
:101E300010F0FEFB32463B4610F0ACFD29A3D3E97F
:101E40000023804689463046394610F0A3FD27A37B
:101E5000D3E9002310F0EAFB32463B4610F09AFD2E
:101E600024A3D3E9002310F0E3FB32463B4610F0F5
:101E700091FD22A3D3E9002310F0D8FB32463B4664
:101E800010F088FD00220A4B10F0D2FB02460B46F0
:101E90004046494610F0A8FE22462B4610F07AFD37
:101EA00022462B4610F0C4FB04B0BDE8F08700BF0B
:101EB0000000F03F09F7FD0DE13D023F88B20175DA
:101EC000E0EF493F3B8F68B52882A43F5544880E18
:101ED00055C1C93F7D6FEB0312D6D43F55555555BB
:101EE0005555C53F82922EB1C5B8B33F59018D1BE0
:101EF0006C06E63FC88A599CE52A00404B2D8A1C97
:101F0000273A0340000000002DE9F84F1D465342D8
:101F1000134325F0004ADFF8E0E14AEAD373734542
:101F2000144606460F4647D8C0F1000848EA0008A4
:101F300021F0004343EAD878F0458B463CD805F1C0
:101F4000404808F5801858EA020850D04FEAA578B2
:101F500008F0020848EAD17850EA030134D052EA86
:101F60000A023CD0F24557D0734538D0A3EB0A03A0
:101F70001B153C2B42DC002D70DB22462B463046E5
:101F8000394610F031FE0EF091FBFEF7E1FCB8F19E
:101F9000010F5FD0B8F1020F4ED0B8F1000F62D040
:101FA00043A3D3E9002310F041FB43A3D3E900236B
:101FB00010F03CFBBDE8F88F32463B4620462946F0
:101FC00010F036FBBDE8F88FB8F1020F1AD0B8F167
:101FD000030F10D13AA1D1E90001BDE8F88FBBF1A0
:101FE000000F14DB38A1D1E90001BDE8F88FBDE88E
:101FF000F84FFEF7ADBC3946BDE8F88F32A1D1E904
:102000000001C4E72CA1D1E90001BDE8F88F30A19F
:10201000D1E90001BDE8F88F534526D0B8F1020F91
:10202000F0D0B8F1030FD5D0B8F1010F4FF0000098
:1020300029D00021BDE8F88F1DA3D3E9002310F0BB
:10204000F5FA02460B461CA1D1E9000110F0EEFAA8
:10205000BDE8F88F01F10041BDE8F88F3C338CDA20
:102060000020002193E7BDE8F88FB8F1020F18D0E7
:10207000B8F1030F10D0B8F1010F08D016A1D1E9C3
:102080000001BDE8F88F4FF00041BDE8F88F14A1C2
:10209000D1E90001BDE8F88F13A1D1E90001BDE845
:1020A000F88F13A1D1E90001BDE8F88FAFF30080EC
:1020B000075C143326A6A13C182D4454FB2109408B
:1020C000182D4454FB2109C0182D4454FB21F93F1D
:1020D000182D4454FB21F9BF182D4454FB21E93F2E
:1020E000182D4454FB21E9BFD221337F7CD902C093
:1020F000D221337F7CD902400000F07F0000000035
:1021000043422DE9F047034321F000463E4A46EAA8
:10211000D373934204460D4613D896423DD03B4BB1
:102120009E428A4617DC36A3D3E9002310F080FADA
:102130000022002310F0BEFEA8B320462946BDE8C9
:10214000F08702460B4610F071FA02460B4610F07B
:102150004BFDBDE8F0872E4B9E42354624DD3346CD
:102160000246314610F064FA224606460F462B46D8
:102170000020254910F05AFA02460B4630463946EF
:1021800010F032FDFEF798FE0022224B10F002FC08
:10219000BAF1000F2FDBBDE8F0870022002310F01A
:1021A00023FDBDE8F087354622462B4620462946CA
:1021B00010F03EFA22462B4606460F4610F0EAFB88
:1021C0002246804689462B4600200F4910F02EFA01
:1021D00002460B464046494610F006FD32463B4655
:1021E00010F026FAFEF768FE00220A4B10F0D2FB30
:1021F000BAF1000FCFDA01F100431946BDE8F087CC
:102200009C7500883CE4377E0000F03FFFFF2F3EC6
:10221000FFFFDF3F0000E03F2DE9F8434E4B21F088
:1022200000449C4206460F461BDC4C4B9C4222DD80
:102230004B4B9C4263DD4B4B9C427BDD4A4B9C42AB
:1022400046DD01339C4240D041A3D3E90023104630
:10225000194610F09FFB06460F4630463946BDE84A
:10226000F88302460B4610F095FB06460F463046B3
:102270003946BDE8F8830EF019FA01F05DFF00223F
:102280003A4B8046894610F0D3F9B4F1725F0646A6
:102290000F46ECDB42464B464046494610F07AFB7F
:1022A00032463B4604460D463046394610F0C0F9EA
:1022B00002460B462046294610F096FC00222B4B86
:1022C00010F0B6F906460F46D1E7294B9842BBD825
:1022D000304639460EF0EAF90022264B10F05AFB40
:1022E00000F04AF8002204460D46224B10F052FB43
:1022F00022462B4610F04EFB06460F46B7E70EF07F
:10230000D5F900F039F800221A4B06460F4610F0B6
:1023100041FB32463B4604460D460020154910F06D
:1023200063FC02460B462046294610F081F906461A
:102330000F469CE70EF0BAF900F01EF800220D4B94
:1023400010F028FB06460F4691E700BFAFF3008070
:102350009C7500883CE4377EFFFFEF7F422ED63F1E
:10236000FFFF3540412E8640CD3386400000F03FD0
:102370007DF8B98F0000E03F2DE9F04FB04E21F01D
:102380000042B24283B004460D464FEAD1770DD9E0
:10239000AC4EB24225D9C1F31303034340F0EC80A5
:1023A0000FB10020002103B0BDE8F08FA64B9A4288
:1023B00000F2CB80A54B9A4200F2DC808AA3D3E9DD
:1023C000002310F035F90022A14B10F073FD002816
:1023D00000F006812046294600229D4B10F028F986
:1023E000E1E783A3D3E9002310F064FD002840F067
:1023F000C88081A3D3E900232046294610F03CFD84
:102400000028CED1934E7EA3D3E9002306EBC70666
:102410002046294610F0BEFAD6E9002310F008F94C
:1024200010F068FD064610F04FFA77A3D3E90023B9
:102430008046894610F0AEFA02460B4620462946F1
:1024400010F0F4F872A3D3E90023CDE9000140466F
:10245000494610F09FFA82468B4652465B46DDE9BC
:10246000000110F0E3F804460D4622462B462046B4
:10247000294610F08FFA68A3D3E9002380468946E5
:1024800010F088FA66A3D3E9002310F0CFF8424693
:102490004B4610F07FFA64A3D3E9002310F0C8F88C
:1024A00042464B4610F076FA61A3D3E9002310F0C0
:1024B000BDF842464B4610F06DFA5FA3D3E9002306
:1024C00010F0B6F842464B4610F064FA02460B464E
:1024D0002046294610F0AAF880468946002E58D09A
:1024E0002046294642464B4610F054FA42460446DE
:1024F0000D464B4600204FF0804110F097F8024601
:102500000B462046294610F06FFB02460B4650460C
:10251000594610F08BF8DDE9002310F087F80B46E0
:1025200002464B49002010F081F86FF47F739E4201
:1025300051DA06F57A7601EB065100224FF0B873B6
:1025400010F028FA03B0BDE8F08F434B9A423FF6F3
:1025500059AF424BFC002344D3E9002310F066F846
:102560003F4BC7F101062344CDE90001D3E900AB9D
:10257000F61B72E7002678E702460B4610F058F883
:1025800011E719A3D3E900231046194610F002FA07
:1025900009E702460B462046294610F0FBF90022C7
:1025A00006460F464FF080434046494610F03EF83D
:1025B00002460B463046394610F016FB22462B46A3
:1025C00010F034F802460B460020214910F02EF896
:1025D00003B0BDE8F08F01EB065103B0BDE8F08F0A
:1025E000064642E7AFF300809C7500883CE4377EE6
:1025F000EF39FAFE422E864051302DD5104987C062
:10260000FE822B654715F73F0000E0FE422EE63FB5
:10261000763C7935EF39EA3DD0A4BE726937663E23
:10262000F16BD2C541BDBB3E2CDE25AF6A56113FD2
:1026300093BDBE166CC1663F3E5555555555C53FB9
:10264000412E8640FFFFEF7F422ED63FFFFF2F3EF9
:102650000000F03FC83B0100B1A2F03FD83B0100B1
:10266000E83B0100000000002DE9F04FB1F5801FAC
:1026700085B006460F460B465ADA024621F0004462
:10268000224300F0F8800029C0F27A810022D64B64
:1026900010F080F9D54A0B46934206460F466FF07C
:1026A000350C4ADCC3F3130505F5152E0EF6647ED2
:1026B0000EF4801E8EF07F5282F440121C1542EA06
:1026C0000507A4F2FF3464440022C94B3046394662
:1026D00004EB1E540FF0AAFFAB1CC3F31303022B31
:1026E00082468B464FF0000230DC002310F0BAFB2C
:1026F000002800F0C980002C00F04B81204610F02B
:10270000E3F8A5A3D3E9002306460F4610F042F9EB
:10271000A3A3D3E9002304460D463046394610F002
:1027200039F902460B46204629460FF081FF0AE0A0
:10273000AE4A93424FF0000CB4DD32463B46304681
:1027400039460FF075FF05B0BDE8F08F4FF08043BC
:102750000FF06EFF02460B465046594610F044FA01
:10276000064620460F4610F0AFF83246CDE900018C
:102770003B4630463946CDE9026710F00BF9024678
:102780000B468046894610F005F987A3D3E900235C
:1027900006460F4610F0FEF885A3D3E900230FF09C
:1027A00047FF32463B4610F0F5F883A3D3E90023F8
:1027B0000FF03EFF32463B4610F0ECF880A3D3E921
:1027C00000230FF035FF42464B4610F0E3F87EA39E
:1027D000D3E90023804689463046394610F0DAF8BE
:1027E0007BA3D3E900230FF023FF32463B4610F0D2
:1027F000D1F879A3D3E900230FF01AFF32463B4604
:1028000010F0C8F80B460246494640460FF010FF4C
:10281000A5F5C223C5F5D725A3F27A4351351D434B
:10282000002D8046894656DD0022724B504659469F
:1028300010F0B0F852465B4610F0ACF806460F4672
:10284000002C68D132463B46404649460FF0F0FE28
:10285000DDE9022310F09EF802460B463046394669
:102860000FF0E4FE02460B46504659460FF0DEFEDE
:1028700005B0BDE8F08F0022002300205E4910F073
:10288000B3F905B0BDE8F08F55A3D3E90023504656
:10289000594610F07FF802460B46002055490FF0CC
:1028A000C5FE524606460F465B465046594610F056
:1028B00071F802460B463046394610F06BF8064672
:1028C0000F46002C40F09A8002460B46504659466F
:1028D0000FF0ACFE37E7002C00F0A4802EA3D3E964
:1028E0000023DDE9000110F055F842464B4604464E
:1028F0000D46504659460FF099FEDDE9022310F0CF
:1029000049F827A3D3E9002306460F46DDE9000175
:1029100010F040F821E020A3D3E90023DDE9000115
:1029200010F038F832463B4604460D4640464946CC
:102930000FF07EFEDDE9022310F02CF818A3D3E996
:10294000002380468946DDE9000110F023F80246A5
:102950000B46404649460FF06BFE02460B4630469A
:1029600039460FF063FE52465B460FF05FFE0246AB
:102970000B46204629460FF059FE05B0BDE8F08F02
:1029800002460B460FF052FE0022002310F02CF9F5
:10299000D9E600200021D6E60000E0FE422EE63F08
:1029A000763C7935EF39EA3D44523EDF12F1C23FC1
:1029B000DE03CB966446C73F599322942449D23F05
:1029C000935555555555E53F9FC678D0099AC33F55
:1029D000AF788E1DC571CC3F04FA97999999D93F6C
:1029E000555555555555D53F00005043FFFFEF7FD6
:1029F0000000F03F0000E03F000050C320460FF011
:102A000063FF0FA3D3E90023804689460FF0C2FF7E
:102A10000DA3D3E9002304460D46404649460FF076
:102A2000B9FF9AE702460B46504659460FF0FEFDA5
:102A3000DDE902230FF0AEFF14E700BFAFF3008023
:102A40000000E0FE422EE63F763C7935EF39EA3D64
:102A5000B1F5801F2DE9F84304460D460B461ADAFE
:102A6000024621F00046324359D000295FDB0022A4
:102A70003B4B0FF08FFF3B4A0D462B4693420446DB
:102A80006FF035010CDD22462B46204629460FF01B
:102A9000CFFDBDE8F883334A93424FF00001F2DCEA
:102AA0001815A0F2FF3008444FEAD0794844C3F328
:102AB00013080FF009FFC9F57F73033348EA035584
:102AC00006460F4620462946FFF7CEFD1EA3D3E952
:102AD000002380468946304639460FF05BFF1CA331
:102AE000D3E9002304460D46404649460FF052FF05
:102AF00002460B46204629460FF09AFD16A3D3E95D
:102B0000002304460D46304639460FF043FF024687
:102B10000B46204629460FF08BFDBDE8F8830022C6
:102B200000230020104910F05FF8BDE8F88302464A
:102B30000B460FF07BFD0022002310F055F8BDE896
:102B4000F88300BFAFF30080362BF111F3FE593D3F
:102B50000EE526157BCBDB3F00609F501344D33F2F
:102B600000005043FFFFEF7F000050C30000000053
:102B70002DE9F0479C4B21F000479F4290B08046E2
:102B8000894640F38E80994B9F420C46924626DC44
:102B900000298BA3D3E9002340F3B0810FF046FD59
:102BA000934B9F4204460D4600F0908086A3D3E9E4
:102BB00000230FF03BFD02460B46CAE900232046E6
:102BC00029460FF033FD80A3D3E900230FF02EFD3B
:102BD0000125CAE90201284610B0BDE8F087854BFF
:102BE0009F4240F39080844B9F4265DC3D15A5F2E7
:102BF0001645A7EB055319461F46064610F07AF90D
:102C00000FF062FE8046894642464B4630463946C2
:102C1000CDE90A890FF00AFD0022784B0FF0BAFEC9
:102C20008946804610F066F90FF04EFE06460F46C4
:102C300032463B4640464946CDE90C670FF0F6FC6C
:102C400000226E4B0FF0A6FE00220023CDE90E01FC
:102C500010F008F9002800F06F8100233046394653
:102C6000002210F0FFF8002814BF01230223644A59
:102C7000019202212A4600910AA8514600F08CFBDD
:102C8000002C054614DADAF80420DAF80C3002F1E8
:102C9000004203F100434542CAF80420CAF80C3050
:102CA00006E000200021C2E90089C2E902010025F6
:102CB000284610B0BDE8F08702460B460FF0B6FC80
:102CC0000025CAE90201CAE90001F1E740A3D3E9FE
:102CD00000230FF0ABFC40A3D3E900230D460446CC
:102CE0000FF0A4FC02460B46CAE900232946204601
:102CF0000FF09CFC38A3D3E900230FF097FC0125CB
:102D0000CAE90201D4E70DF0D1FC35A3D3E90023D1
:102D1000804689460FF03EFE00223A4B0FF088FCB9
:102D200010F0E8F805460FF0CFFD25A3D3E9002306
:102D3000CDE906010FF02EFE02460B4640464946FD
:102D40000FF074FC20A3D3E90023CDE90201DDE9F3
:102D500006010FF01FFE1F2D80468946CDE904892C
:102D600054DC294B6A1E53F822309F424ED0024653
:102D70000B46DDE902010FF059FC80468946CAE99D
:102D8000008942464B46DDE902010FF04FFCDDE9C8
:102D900004230FF04BFC002CCAE9020188DA09F188
:102DA000004401F100436D42CAF80080CAF80440B3
:102DB000CAF80800CAF80C307AE700BFAFF3008009
:102DC00000004054FB21F93F3163621A61B4D03DE9
:102DD0000000601A61B4D03D7370032E8A19A33BC2
:102DE00083C8C96D305FE43FFB21E93F7BD90240D6
:102DF000FB21F93FFB213941FFFFEF7F00007041CC
:102E0000EC4C01000000E03F6C4C0100DDE90423C4
:102E1000DDE902010FF00AFC3F15C1F30A53FB1A6A
:102E200080468946102BCAE90089AADD58A3D3E958
:102E30000023DDE906010FF0ADFD8046894602461C
:102E40000B46DDE902010FF0F1FB02460B46DDE91E
:102E50000201CDE908230FF0E9FB42464B460FF093
:102E6000E5FB4DA3D3E9002380468946DDE9060151
:102E70000FF090FD42464B460FF0D8FB0B46CDE9D4
:102E800004010246DDE908010FF0D0FBC1F30A534B
:102E9000FF1A80468946312FCAE900896CDD41A3BB
:102EA000D3E90023DDE906010FF074FDDDE90889AF
:102EB00006460F4602460B46404649460FF0B6FB13
:102EC00002460B4640464946CDE902230FF0AEFBD1
:102ED00032463B460FF0AAFB34A3D3E90023064653
:102EE0000F46DDE906010FF055FD32463B460FF077
:102EF0009DFB02460B46CDE904233AE70FF098FB11
:102F0000274B9F4204460D4618D01FA3D3E9002348
:102F10000FF08EFB02460B46CAE9002329462046E5
:102F20000FF084FB18A3D3E900230FF081FB4FF0CF
:102F3000FF35CAE90201BBE6032398E614A3D3E9EF
:102F400000230FF075FB14A3D3E900230D460446BC
:102F50000FF06EFB02460B46CAE9002329462046C5
:102F60000FF064FB0CA3D3E900230FF061FB4FF0DB
:102F7000FF35CAE902019BE69DED087B8DED027BE2
:102F8000FFE600BFAFF300803163621A61B4D03D49
:102F90000000601A61B4D03D7370032E8A19A33B00
:102FA000FB21F93F0000002E8A19A33BC1492025CF
:102FB0009A837B3900000000594A2DE9F84F21F02F
:102FC0000048904506460F462BDC564B0029B4BFFF
:102FD000554D564D98454FF0000410DC544B984524
:102FE00070DC4DA3D3E900230FF022FB0022514BEC
:102FF0000FF060FFD8B130463946BDE8F88F4E4B30
:1030000098457CDD4D4B984544DD013398453ED0D5
:103010003046394640A3D3E900230FF0BBFCBDE89E
:10302000F88F02460B460FF003FBBDE8F88F3046E1
:1030300039460DF03BFB01F07FF806460F4632465D
:103040003B46304639460FF0F3FA324682468B460D
:103050003B46304639460FF09DFC002280468946AB
:10306000344B304639460FF0E3FA02460B464046F1
:1030700049460FF0B9FD02460B46504659460FF03F
:10308000D5FA22462B460FF085FCBDE8F88F2C4B75
:103090009842BDD8304639460DF008FB0022234B3C
:1030A0000FF078FCFFF768F906460F4602460B461C
:1030B000204629460FF06EFC32463B460FF06AFC74
:1030C000BDE8F88F0DF0F2FA01F036F81D4B984587
:1030D00006460F46B3DD0022164B0FF0A9FA024652
:1030E0000B46304639460FF07FFD32463B460FF027
:1030F0009FFA22462B460FF04DFCBDE8F88F0DF0ED
:10310000D5FAFFF739F902460B46204629460FF05B
:1031100041FCBDE8F88F00BF3374AC3C1F7BAC7F33
:10312000FFFFEF7FFFFF35400000E0BF0000E03F02
:10313000FFFF2F3E0000F03F412E8640CD338640FA
:103140007DF8B98FFFFFEF3F2DE9F04F21F00048E8
:10315000B8F1795F85B006460F4692469B466BDA1A
:103160000FF0C8FE002800F0EA8032463B463046A9
:1031700039460FF00FFC74A3D3E9002304460D4633
:103180000FF008FC72A3D3E900230FF051FA224696
:103190002B460FF0FFFB70A3D3E900230FF046FA94
:1031A00022462B460FF0F6FB6DA3D3E900230FF068
:1031B0003FFA22462B460FF0EDFB6BA3D3E9002329
:1031C0000FF034FA22462B460FF0E4FB68A3D3E954
:1031D00000230FF02DFA22462B460FF0DBFBCDE942
:1031E00000010022664B204629460FF0D3FBDDE9A3
:1031F000002380468946204629460FF0CBFB5246E5
:1032000004460D465B46304639460FF0C3FB024686
:103210000B46204629460FF009FA02460B46404667
:1032200049460FF003FA02460B46002055490FF0BD
:10323000FDF905B0BDE8F08F02460B460FF0AAFB82
:1032400041A3D3E9002304460D460FF0A3FB40A39E
:10325000D3E900230FF0ECF922462B460FF09AFB3E
:103260003DA3D3E900230FF0E1F922462B460FF0EE
:1032700091FB3BA3D3E900230FF0DAF922462B465A
:103280000FF088FB38A3D3E900230FF0CFF92246D3
:103290002B460FF07FFB36A3D3E900230FF0C8F9CC
:1032A0002B4622460FF076FB374B9845CDE90001BF
:1032B00097DD364B984539DCA8F500130022002035
:1032C0003049904699460FF0B1F9CDE9020100224C
:1032D0002B4B204629460FF05DFB42464B460FF034
:1032E000A5F9DDE9002380468946204629460FF0EE
:1032F00051FB524604460D465B46304639460FF0B8
:1033000049FB02460B46204629460FF08FF902463C
:103310000B46404649460FF089F902460B46DDE967
:1033200002010FF083F905B0BDE8F08F9FED127B2D
:103330004FF000088DED027BDFF85490C7E711498C
:10334000002005B0BDE8F08FD43888BEE9FAA8BDEA
:10335000C4B1B4BD9EEE213EAD529C804F7E923EE4
:103360009015CB19A001FA3E7751C1166CC1563F9A
:103370004C5555555555A53F000000000000E73F4E
:103380000000E03F0000F03F3233D33F0000E93F50
:103390000000D23F000000002DE9F04FADF51B7D8D
:1033A0009F4CA49E9F4D54F8264007942646D41E59
:1033B00085FB0475E417C4EBA50424EAE4741D46F8
:1033C0000A93631CA3EB8303013D02EBC303069343
:1033D0002B460B940395651BF418049008911AD49E
:1033E0002C440026002701340DF18808DDF8949262
:1033F00008E059F825000FF067FA0135A542E8E822
:10340000020108D0002DF4DA013530463946A542D4
:10341000E8E80201F6D1079B002BC0F2DF83079B8F
:1034200003F1010B0A9B22A9DB001A4601EB0309F9
:103430000093049B0DF5E47A19460AEBCB0B01EBE4
:103440000208039B002BC0F2F582049C4D46002627
:10345000002775E90223F4E802010FF09BFA024607
:103460000B46304639460FF0E3F8444506460F4612
:10347000EFD1EAE80267DA4509F10809E1D10799D5
:103480000098049C009101F18043013B9B00204483
:103490001A1F83460EA8024403440C920D93009A0F
:1034A0009AA901EBC203002A53E9284529DD0DF54D
:1034B000E47A0AEBC2080DF1340900225A4B204687
:1034C00029460FF067FA0FF015FD0FF0FDF9002205
:1034D000564B06460F460FF05DFA02460B46204655
:1034E00029460FF0A3F80FF005FD78E9022349F80B
:1034F000040F394630460FF09BF8D04504460D4680
:10350000DBD1DDF81890204629464A4601F050F8F4
:1035100000224FF07F5304460D460FF03BFAFDF7B3
:1035200043FC0022424B0FF035FA02460B46204680
:1035300029460FF07BF80D4604460FF0DBFC804671
:103540000FF0C2F90B460246294620460FF06EF8EE
:103550004B46002B06460F4640F3F980009A0EA911
:10356000013AC9F1180351F8225045FA03F101FA62
:1035700003F30EA8EB1A40F82230C9F1170588446E
:1035800043FA05F5002D6DDD009B002B08F10108C5
:1035900040F36F820E9C002C40F01683009B012BA1
:1035A00040F38F820EAA012352F8044F002C00F042
:1035B0008382581C0EAAC4F1807442F82340009AFA
:1035C000824219DD0EAA0EAC52F820106FF07F4235
:1035D000511A44F820100099023399420CDD10462C
:1035E000009A0EA901EB830301EB82011A68821A8B
:1035F00043F8042B8B42F9D1069B002B1ADD069B66
:10360000012B4FF0010440F03C82009B5A1E0EAB90
:103610000EA953F82230C3F3160341F822303CE2DE
:103620008C510100ABAAAA2A0000703E0000704134
:1036300000002040022D15D132463B460020924921
:103640000EF0F4FF06460F46069A8F49002000F060
:10365000AFFF02460B46304639460EF0E7FF022523
:1036600006460F4600220023304639460FF0FAFB8B
:10367000002800F03782009A079B501E83420FDC1F
:1036800002F18043013B0EAA0D9C02EB8303002252
:1036900053F80419A34242EA0102F9D1002A67D182
:1036A000079B0EAA013B52F82330002B40F01882F2
:1036B0000C9A012352F8041901330029FAD0009A18
:1036C000D31802F1010A9A4509933DDC009B0A993F
:1036D0000B9A0B4409990AEB0208994622AB08F1B0
:1036E000804803EBC9098B18A59A08F1FF3802EB53
:1036F000880872AA02EBCA0AA59A02EB8303009318
:1037000058F8040F0FF0E0F8039B002BE9E80201E2
:103710004FF000064FF0000711DB049C4D4675E9A1
:103720000223F4E802010FF035F902460B46304659
:1037300039460EF07DFF5C4506460F46EFD1009BF3
:103740009845EAE80267DBD1099B0093A7E606D11A
:10375000009B0EAA013B52F82350ED1512E7002200
:103760004A4B0FF09DFB002840F06E81054679E73B
:103770000EA9039551F820300699CDF82480183908
:103780000246009006916BB900F18043013B0EA800
:1037900000EB830353F80409013A18390028F9D0E3
:1037A00000920691069A3849002000F001FF009B24
:1037B000002B04460D46C0F2F781DA0072A901EB36
:1037C000020B06920EAA02EB8306DFF8C4904FF0BC
:1037D00000080BF10807043656F8040D0FF074F8D2
:1037E00022462B460FF0D6F84B4667E902014246C7
:1037F000204629460FF0CEF80EAB9E4204460D46F9
:10380000EAD14AACDDF81C9004944FF0000AB9F1FB
:10381000000FC0F22B81DFF87C805D4618A1D1E952
:10382000000100260027002403E0544510DCF8E8DE
:103830000201F5E802230FF0ADF802460B463046D0
:1038400039460EF0F5FE0134A14506460F46ECDA86
:10385000049B03EBCA03ABF1080BC3E9006770AB31
:103860009B450AF1010AD2D1A49B049C032B00F2D0
:103870008980DFE803F0C58E8E1100BFAFF30080B2
:1038800000000040FB21F93F0000F03F0000E03F56
:103890000000703E103C0100009B002B40F3818132
:1038A000069A04EB020ADAE9008902F108052544C8
:1038B0000DF5987B1AED027B42464B4651EC170BF7
:1038C0008DED047B0EF0B4FE06460F4602460B4615
:1038D000DDE904010EF0AAFE42464B460EF0A8FEBA
:1038E00065E902015D45B046B9466AE90267E1D182
:1038F000009B012B40F35581069BE518D5E9008913
:1039000003F1080B04EB0B0A15ED027B42464B4614
:1039100051EC170B8DED007B0EF08AFE06460F462C
:1039200002460B46DDE900010EF080FE4B464246A2
:103930000EF07EFE6AE902014EAB5345B046B94631
:1039400065E90267E0D10020002104EB0B0575E971
:1039500002230EF06DFEAA45F9D1039B002B00F067
:103960000A816268E368089F2568A4683D6002F1E7
:10397000004203F1004301F100417A60FB60BC604A
:1039800038617961099B03F007000DF51B7DBDE8E7
:10399000F08F069D083525440020002175E902239B
:1039A0000EF046FEA542F9D1039B002B00F0D28019
:1039B000089E024601F1004386E80C000B460246D1
:1039C000D4E900010EF032FE009B002B0BDD4CAD64
:1039D0000124F5E802230EF02BFE009B0134A342E4
:1039E000F7DA039B13B101F100431946089BC3E9C1
:1039F0000201099B03F007000DF51B7DBDE8F08F68
:103A0000069D083500200021254475E902230EF0AB
:103A10000FFEAC42F9D1039B13B101F100431946EB
:103A2000089BC3E90001099B03F007000DF51B7D0E
:103A3000BDE8F08F00260027EAE80267DA4509F1C1
:103A400008097FF4FEAC1AE5009B002B08F1010881
:103A5000C8BF02253FF79EAD32463B460020614974
:103A60000EF0E4FD022506460F46FBE50026002782
:103A7000EEE6069B002B27DD0024069B012B3FF47E
:103A8000C4AD022B09D1009B5A1E0EAB0EA953F8F0
:103A90002230C3F3150341F82230022D7FF4E2AD4A
:103AA00032463B4600204F490EF0C0FD06460F4609
:103AB000002C3FF4D7ADC7E50099013399427FF45C
:103AC00073AD069B002BD8DC022D7FF4CBAD3246C4
:103AD0003B46002043490EF0A9FD06460F46C1E5CE
:103AE0000123ECE53946069F03957A423046CDF82E
:103AF000248000F05DFD00223B4B04460D460FF094
:103B0000CFF9002843D00022384B204629460EF03A
:103B100041FF0FF0EFF906460EF0D6FE0022324BC1
:103B20000EF038FF02460B46204629460EF07EFD79
:103B30000FF0E0F900990B4601331A4600933B461B
:103B4000183306930B460EA941F82300134641F89B
:103B5000236027E6089B0246C3E900010B46D4E92F
:103B600000010EF063FD009B002B3FF730AF089B78
:103B7000C3E902013DE7D4E90067D4E90223089DC7
:103B8000C5E90401C5E90067C5E90223FAE629464B
:103B900020460FF0AFF9009A0EA941F8220001E685
:103BA0004AAC00200021D8E6A49B032B3FF6EAAEE6
:103BB00001A252F823F000BFD73B0000CF3B00002A
:103BC000CF3B0000A13B000001200023F2E40020D5
:103BD00000214AACE8E6002000211CE70A9BDB003C
:103BE00000934CE40000F03F000070410000703E84
:103BF0002DE9F04F21F00046B6F1795F85B004461B
:103C00000D469046994604DA0FF074F9002800F04A
:103C1000858022462B46204629460EF0BBFE0646EE
:103C20000F4602460B46204629460EF0B3FE41A33E
:103C3000D3E9002382468B46304639460EF0AAFE71
:103C40003EA3D3E900230EF0F1FC32463B460EF0D2
:103C5000A1FE3CA3D3E900230EF0EAFC32463B462A
:103C60000EF098FE39A3D3E900230EF0DFFC3246B4
:103C70003B460EF08FFE37A3D3E900230EF0D8FCAD
:103C80000E9BCDE900019BB30022294B40464946DB
:103C90000EF080FEDDE90023CDE9020150465946D1
:103CA0000EF078FE02460B46DDE902010EF0BEFC86
:103CB00032463B460EF06EFE42464B460EF0B6FCD8
:103CC00019A3D3E9002306460F46504659460EF085
:103CD00061FE02460B46304639460EF0A9FC02460C
:103CE0000B46204629460EF0A1FC05B0BDE8F08F3A
:103CF00002460B46304639460EF04CFE0AA3D3E985
:103D000000230EF093FC52465B460EF043FE224623
:103D10002B460EF08DFC05B0BDE8F08F20462946FD
:103D200005B0BDE8F08F00BF495555555555C53F05
:103D30000000E03F7CD5CF5A3AD9E53DEB9C2B8A79
:103D4000E6E55A3E7DFEB157E31DC73ED561C11978
:103D5000A0012A3FA6F810111111813F00000000B8
:103D60002DE9F04FBE4C21F0004687B0A6428246B6
:103D70008B460F46CDE900231BDC0FF0BBF8002873
:103D800037D153461E43109B0133334300F0B381B8
:103D9000109B012B00F0C88152465B460020B149C0
:103DA0000EF022FF04460D462046294607B0BDE826
:103DB000F08FAD4B9E421CDD0029C0F2A981524616
:103DC0005B4687A1D1E900010EF030FCDDE900235C
:103DD00004460D4684A1D1E900010EF027FC9FEDB9
:103DE000847B22462B468DED007B0EF021FC824623
:103DF0008B4652465B46504659460EF0CBFD024676
:103E00000B46804689460EF0C5FD424604460D46E7
:103E10004B46504659460EF0BDFD77A3D3E900232B
:103E2000CDE90201204629460EF0B4FD74A3D3E982
:103E300000230EF0FDFB22462B460EF0ABFD72A3D5
:103E4000D3E900230EF0F4FB22462B460EF0A2FD30
:103E50006FA3D3E900230EF0EBFB22462B460EF0B6
:103E600099FD6DA3D3E900230EF0E2FB22462B4619
:103E70000EF090FD6AA3D3E900230EF0D9FB424671
:103E80004B460EF087FD68A3D3E90023CDE904017A
:103E9000204629460EF07EFD65A3D3E900230EF0EF
:103EA000C7FB22462B460EF075FD63A3D3E9002322
:103EB0000EF0BEFB22462B460EF06CFD60A3D3E94C
:103EC00000230EF0B5FB22462B460EF063FD5EA3E9
:103ED000D3E900230EF0ACFB22462B460EF05AFD30
:103EE0005BA3D3E900230EF0A3FB02460B46DDE9FA
:103EF00004010EF09DFBDDE902230EF04BFDDDE930
:103F0000004522462B460EF093FB42464B460EF0F0
:103F100041FD02460B46204629460EF089FB4EA382
:103F2000D3E9002304460D46DDE902010EF032FD1F
:103F300022462B460EF07CFB0B4602468046894605
:103F4000504659460EF074FB474B9E4204460D46C0
:103F500000F38E80109B012B3BD002460B460020C5
:103F600040490EF041FE002406460F4620462946F1
:103F700052465B46CDE90067CDE9020100940EF0A0
:103F800055FBDDE900AB02460B46404649460EF0C4
:103F90004DFB52465B460EF0FDFC524604460D4674
:103FA0005B46DDE902010EF0F5FC00222F4B0EF01E
:103FB0003FFB02460B46204629460EF039FB3246AF
:103FC0003B460EF0E7FC52465B460EF031FB0446E2
:103FD0000D462046294607B0BDE8F08FAFF30080BC
:103FE000182D4454FB21E93F075C143326A6813C7D
:103FF0000000000000000000D47ABF74702AFB3E6D
:10400000E9A7F0320FB8123F68108D1AF726303F3B
:104010001583E0FEC8DB573F93846EE9E326823FB9
:10402000FE41B31BBAA1AB3F735360DBCB75F3BE4C
:10403000A69237A0887E143F0165F2F2D844433F30
:10404000280356C9226D6D3F37D60684F464963F27
:104050007AFE10111111C13F635555555555D53F85
:10406000FFFF2F3E0000F0BF2794E53F0000F03F28
:1040700010980EF029FC2246CDE900012B4620467F
:1040800029460EF087FCDDE90023CDE90201204638
:1040900029460EF0CDFA02460B46DDE902010EF08C
:1040A000A3FD42464B460EF0C1FA02460B4650466F
:1040B00059460EF0BBFA02460B460EF0B9FA02461C
:1040C0000B46DDE900010EF0B1FA0446B81700F026
:1040D0000200C0F101000D460EF0F6FB02460B4651
:1040E000204629460EF056FC04460D462046294639
:1040F00007B0BDE8F08F504659460CF0D7FA02469B
:104100000B4600200A490EF06FFD04460D4660E79D
:10411000DDE9004501F10041224605F100438246F8
:104120008B46CDE900234AE654465D4651E700BF81
:104130000000F03F000000002DE9F04FD24A21F0CE
:104140000043934285B082468B460C462DD9CF4A18
:1041500093421AD8002C80F21681B5A3D3E900232C
:10416000504659460EF064FA002200230EF084FEF9
:10417000C0B9B1A3D3E90023504659460EF00AFC5A
:1041800002460B460020C24908E1C24A934240F26F
:10419000D0800346C1F31302134340F0F481002999
:1041A00080F2C4800020BC49C0E0BC4A934200F2C7
:1041B0002981BB4A934240F2DE8000230193002212
:1041C000B84B504659460EF0E5FB06460F460246F0
:1041D0000B46504659460EF0DDFB99A3D3E9002368
:1041E00004460D460EF0D6FB97A3D3E900230EF04C
:1041F0001FFA22462B460EF0CDFB95A3D3E90023F0
:104200000EF014FA22462B460EF0C4FB92A3D3E91B
:1042100000230EF00DFA22462B460EF0BBFB90A3B6
:10422000D3E900230EF002FA22462B460EF0B2FB31
:1042300000229D4B0EF0FCF98046894602460B4653
:10424000304639460EF0A6FB02460B460020974941
:104250000EF0ECF9064602460B460F46404649462C
:104260000EF0E4F93246804689463B4650465946B0
:104270000EF090FB02460B4600208D490EF0D6F959
:1042800002460B46404649460EF0AEFC22462B46FF
:104290000EF080FB019E02460B46002E38D0DDE971
:1042A000026732463B460EF0C1F952465B460EF0BD
:1042B00071FB32463B460EF0B9F92B4622460EF012
:1042C000B5F9019B013306460F4600F00F81019BB3
:1042D000012B00F0F180019B0133392B39D8019B70
:1042E000132B40F31281019CC4F57F750335002226
:1042F0002B050EF09DF902460B46504659460EF02E
:1043000095F90022684B0EF093F901EB04510DE092
:10431000504659460EF03EFB22462B460EF086F9DB
:1043200002460B46504659460EF080F905B0BDE8EE
:10433000F08F4DA3D3E900230EF0BCFD00283FF41D
:1043400009AF4BA3D3E90023104619460EF022FB18
:10435000ECE752465B460EF069F902460B46002038
:1043600051490EF063F9019A4F4B01EB02510022C3
:104370000EF05CF9DAE73EA3D3E900230EF058F91A
:1043800002460B46CAE72CA3D3E900235046594600
:104390000EF000FB0B464349024600200EF048F9A0
:1043A0000EF0A8FD01900EF08FFA33A3D3E900239D
:1043B00006460F460EF0EEFA02460B4650465946A8
:1043C0000EF034F92EA3D3E9002380468946304607
:1043D00039460EF0DFFA06460F4632463B46404667
:1043E00049460EF023F902460B4682468B4640466C
:1043F00049460EF01BF932463B460EF017F9CDE95F
:104400000201DCE62B4A934200F2958000291AA3B0
:10441000D3E90023C0F2AC800EF008F901238046F6
:104420008946019316A7D7E90067D6E7AFF3008066
:1044300059F3F8C21F6EA501FE822B654715F73FA1
:104440002DC3096EB7FD8ABE3952E686CACFD03E6B
:10445000B7DBAA9E19CE143F8555FE19A0015A3F1D
:10446000F41011111111A13FEF39FAFE422E8640CE
:104470009C7500883CE4377E0000E0FE422EE63F5B
:10448000763C7935EF39EA3D79684340412E8640E4
:104490000000E0BFFFFFEF7F0000F0BF422ED63FDD
:1044A000FFFF8F3C0000E03F0000F03F00000840AD
:1044B00000001840B1A2F03F0022394B5046594647
:1044C0000EF0DAFC002844D0504659460022354B05
:1044D0000EF0AEF802460B46304639460EF0A6F80E
:1044E00000224FF040430EF055FA1FE702460B46FC
:1044F000504659460EF09AF800222A4B0EF04AFA1E
:104500000022284B0EF092F810E7019C4FF40013A4
:104510002341C3F17F5752465B460EF087F80026D1
:1045200007F5401702460B46304639460EF07EF836
:1045300001EB0451FAE616A3D3E900230EF02AFAA0
:10454000002C02460B464FF00000FFF61CAE15494A
:1045500024E732463B46504659460EF067F802467D
:104560000B460EF065F800220F4B0EF061F8DDE609
:104570000EF05EF84FF0FF3380468946019306A7A0
:10458000D7E9006729E702460B460EF051F8CDE661
:10459000FE822B654715F73F763C7935EF39EABD4A
:1045A0000000D0BF0000E03F0000F03F000000002E
:1045B000F8B5C1F30A5604460D460B4617460EBB26
:1045C00021F000430343864625D00022344B0EF0F1
:1045D000E1F9344A974204460D460B462ADBC1F303
:1045E0000A56363E3E4440F2FE72964228DC002EC9
:1045F00012DD23F0FF4323F4E00343EA065520468F
:104600002946F8BD40F2FF729642EBD102460B46B6
:104610000EF00EF8F8BDF8BD16F1350F1DDA4CF2AC
:1046200050339F4222462B4625DC19A1D1E90001D7
:104630000DF06EFF16A3D3E900230EF0ABF9F8BD21
:1046400022462B4614A1D1E900010DF061FF12A30F
:10465000D3E900230EF09EF9F8BD23F0FF4323F4C5
:10466000E003363643EA06552046294600220E4B23
:104670000EF090F9F8BD08A1D1E900010DF048FF56
:1046800005A3D3E900230EF085F9F8BDAFF3008050
:1046900059F3F8C21F6EA5019C7500883CE4377E73
:1046A00000005043B03CFFFF0000903C10B5054CAB
:1046B000237833B9044B13B10448AFF300800123CE
:1046C000237010BD78080020000000000453010092
:1046D0000C4B43B10C480D4910B5AFF300800C48AA
:1046E000036823B910BD0A48036833B97047094B02
:1046F000002BF7D0BDE810401847064B002BF5D033
:10470000184700BF00000000045301007C0800208F
:104710001802002000000000154B002B08BF134BAF
:104720009D46A3F5803A00218B460F461348144A54
:10473000121A0EF0D0FE0F4B002B00D098470E4BF4
:10474000002B00D098470020002104000D000D48E8
:10475000002802D00C48AFF300800DF00FFF2000BE
:10476000290003F01DFF0DF0F5FE00BF000008005A
:1047700000000220000000000000000018020020DD
:104780008C0F0020000000000000000008B501F0C0
:10479000A5FAFCF7C5FDBDE8084001F001B800BF6F
:1047A00008B501F09BFAFCF72BFEBDE8084000F0CD
:1047B000F7BF00BF08B501F091FA0BF0EDFFBDE8BF
:1047C000084000F0EDBF00BF08B501F087FA0CF01B
:1047D000F5FBBDE8084000F0E3BF00BF08B501F0FD
:1047E0007DFAFCF7ADFDBDE8084000F0D9BF00BF81
:1047F00008B501F073FA0CF00DFABDE8084000F0BE
:10480000CFBF00BF08B501F069FAFCF705F8BDE8B5
:10481000084000F0C5BF00BF08B501F05FFA0CF01A
:104820004DF9BDE8084000F0BBBF00BF10B584B033
:104830000C46014603A809F0CFFD002303A900930D
:104840001A460194034807F099FF03A809F0AEFD4A
:1048500004B010BD2807002010B50129B8BF012100
:1048600082B00C46D0B18288C2B1012A0ED0811D1F
:1048700012B201A80AF038F8224601A90C4807F044
:10488000D5FF01A809F0FEFF02B010BD01EB8102C7
:104890008179074807F04CFF02B010BD054808F0C9
:1048A00003FD04EB840005F0B3FE02B010BD00BFB1
:1048B0002807002004070020014809F0B5BD00BF0B
:1048C0001407002010B584B00C46014603A809F077
:1048D00083FD0023224603A9019300930448052386
:1048E00008F00CF803A809F061FD04B010BD00BF8A
:1048F0002807002000B585B0014602A809F06CFD2C
:1049000002A903A809F060FD002303A90193009305
:104910001A46064807F032FF03A809F047FD02A82F
:1049200009F044FD05B05DF804FB00BF2807002036
:1049300000F084BB05F06CBE70B5049E96420C4638
:1049400028DB15466BB1002A00EB020107DD20468B
:10495000A21811F8013D00F8013B9042F9D1002066
:1049600070BD042A0FD0022A02D110F0010306D034
:1049700001462A4620460EF089FD002070BD0288BF
:104980000A80184670BD10F00303F1D102680A6076
:10499000184670BD084600210EF09DFD4FF0FF3017
:1049A00070BD00BF0830704740B1002905DB436887
:1049B000994202DA0844007A70470020704700BF2D
:1049C00030B1002904DB43689942BCBF4018027231
:1049D000704700BF40B1002905DB4368994202DA05
:1049E0000844007A70470020704700BF830705D154
:1049F00020B1030F0CBF0120002070470120704739
:104A000030B1002904DB43689942BCBF40180272F0
:104A1000704700BF002B23DB002921DB70B54668FF
:104A2000B1421ADC5568761A1446EA1AB242A8BF97
:104A30003246002A11DB84420D4607D00834083084
:104A40000844E1180EF022FD002070BD0834E11882
:104A500060190EF026FD002070BD4FF0FF3070BDD4
:104A60004FF0FF30704700BF4068704710B4141E0D
:104A700010DB426894420DDC33EA230328BF13465F
:104A8000121B08309A422044A8BF1A465DF8044B16
:104A90000EF021BD5DF8044B704700BF43688B42A8
:104AA00010B400F108041846A8BF084632EA2201F3
:104AB00028BF19461B1A99422044A8BF19465DF821
:104AC000044B00F03FBD00BF002BBCBF43689B1AE6
:104AD000002A70B50E4622DB44689918A1421EDCFC
:104AE0008A421CDCDBB136F0004118D059428E42BC
:104AF00013DDB34211DD0830002E00EB020516DB9A
:104B00009C1B2246A91928460EF0CBFC32462819D8
:104B10000021BDE870400EF0DEBC002C00DA70BD54
:104B2000224608300021BDE870400EF0D4BC74422B
:104B30009A19294628190EF0B4FC2246284600216D
:104B4000BDE870400EF0C7BC03460830596800F05D
:104B5000F7BC00BF70B5044600206168490000F052
:104B6000CDFC6668002E11DD094D04F1080100EB53
:104B70004606034611F8012B141102F00F022C5DBA
:104B8000AA5C9C71DA7102339E42F3D170BD00BF02
:104B9000483C0100002BBCBF43689B1A002A2FDB56
:104BA00070B445689C18AC4229DCA24227DC33B3C0
:104BB00031F0004423D00029B8BF01EB032191FB61
:104BC000F3F603FB1616002E00F10800B8BFF61826
:104BD00002441644B242134411D0304604E0B242BB
:104BE00008460ED090420AD00146147811F8015BB5
:104BF00002F8015B8B420470F1D13046F2E770BCE1
:104C000070470E46EEE700BF00B583B04FF0FF33AC
:104C100000930023FFF7FEFE03B05DF804FB00BF26
:104C20000146002000F08EBC03460630998800F053
:104C300089BC00BF30B5013A83B004460D460F2A47
:104C400016D8DFE802F01717838D94172E08081F77
:104C5000424D5C367462184601F0D4F8012DADF86F
:104C6000000005DD9DF800209DF801302370627082
:104C700003B030BD184601F0C5F8002DF8DD2070F6
:104C800003B030BD184601F0BDF8032D0090EFDDF4
:104C90006A46231D12F8011B03F8011D9C42F9D13D
:104CA000E6E7184601F0AEF8002DC0B2E0DD207056
:104CB000E6E7184601F012F8072DCDE90001D7DD2F
:104CC0006B4603CB20606160D2E7184601F02EF8F6
:104CD000032DCDDDA3070CBF2060206003B030BDE5
:104CE000184601F023F8032D0090C1DD6A46231D0C
:104CF00012F8011B03F8011D9C42F9D1B8E71846D0
:104D000001F018F9032DE5DCB2E7184600F0E6FFE4
:104D1000072DCDE90001ABDD0DF1FF3204F10803F1
:104D200012F8011F03F8011DA342F9D1A0E71846AC
:104D300001F000F9032D00909ADD6A46231D12F858
:104D4000011B03F8011DA342F9D191E7184601F0B8
:104D500059F8012D8CDDE20754BF2080208087E7C1
:104D6000184601F04FF8012D82DD80B2F3E71846B6
:104D700001F048F8032DADDC7AE700BF30B4141E13
:104D800007DB456808300A462044291B30BCFFF782
:104D900051BF30BC704700BF00B5013A85B00F2A43
:104DA00000F28880DFE802F01623303D4A56595C55
:104DB0005F626571748083080091012308220DEB06
:104DC0000201FFF7B9FDDDE9020100F0E9FC05B0E1
:104DD0005DF804FB00910023012202A9FFF7ACFD5E
:104DE0009DF9080000F0CCFD05B05DF804FB0091D2
:104DF0000023012202A9FFF79FFD9DF8080000F0A3
:104E0000BFFD05B05DF804FB00910023022202A95A
:104E1000FFF792FDBDF9080000F0B2FD05B05DF8A6
:104E200004FB00910023022202A9FFF785FDBDF8D3
:104E3000080000F0A5FD05B05DF804FB009100231B
:104E4000042202A9FFF778FD029800F099FD05B051
:104E50005DF804FB01230091BEE701230091C8E740
:104E600000910123D2E700910123DCE700910123A7
:104E7000E6E700910023042202A9FFF75DFD0298F6
:104E800000F088FD05B05DF804FB00910123F2E716
:104E900000910023042202A9FFF74EFD029800F0C2
:104EA00067FD05B05DF804FB0091002386E70091E3
:104EB0000123EFE700208AE7131E09DB10B44468E2
:104EC00008300A461844E11A5DF8044BFFF764BF46
:104ED000002000F055BD00BF0048704716FCFFFFE2
:104EE000704700BF704700BF0048704716FCFFFFC7
:104EF000054B1A6810B4146B0023A4461A461946D1
:104F00005DF8044B604700BFDC08002070B584B03A
:104F10008DE80F009DE80F00BDF80260144CBDF84D
:104F2000005084E80F003146284600F0A5FA0446F8
:104F3000304600F025FD06463CB10E4BE0681A688D
:104F40000023146B31461A46A0472846002100F082
:104F500093FA58B1074BC0681A68146B00233146A6
:104F60001A46A44604B0BDE87040604704B070BD66
:104F700068080020DC08002008B502F0AFF9BDE8A1
:104F8000084005F07BBB00BF08B5064E05463268F9
:104F90000023146B19461A462846A047142005F032
:104FA00037FBF4E7DC08002010B5044B0360002356
:104FB0000446C38004F070FE204610BD643C01002E
:104FC00010B5064B036000230446C38004F064FE62
:104FD00020460EF021FA204610BD00BF643C0100BF
:104FE00010B56FF0004003F0E5FD044601460448AB
:104FF00004F06AFF2046BDE8104000F0C3BA00BFCD
:105000007C3C010008B50A4804F022FB012005F0B1
:1050100011FC40F20443984200D808BD012005F07D
:1050200009FCBDE80840A0F5806001F067BE00BF44
:1050300018020020704700BF05F020BB50B110B52A
:10504000044602F03BF92146034A0448BDE81040FB
:1050500005F0D0B9704700BF09A70000894F0000D4
:1050600050B110B5044602F029F92146034A04481C
:10507000BDE8104005F0BEB9704700BF794F000091
:10508000F14E000008B5042003F09EFDBDE8084085
:10509000FFF7A6BF064B10B51C6800F0CDFC04F668
:1050A000FF74204420F47F6020F00F0010BD00BF8B
:1050B000DC0800200A4602230146014806F0ACBB8A
:1050C00070060020024B186800B1006A704700BFEC
:1050D000100E0020014B1B6818627047100E002054
:1050E0002DE9F04FDFF8EC80D8F8003087B0002BC6
:1050F00063D08146002004F011FF04460290800036
:1051000005F0FCFB039004F009FF844203D04FF448
:105110004B7005F0BBFC029B002B3ADD0023009393
:105120009A46039B043B09F002090193019B53F843
:10513000047F01933E6A36B30436D8F800303468F1
:105140009F422CD03868BD6804F01CF9D8F80030B4
:10515000281A9F420444756807D03868D7F808B009
:1051600004F010F9ABEB00000544B9F1000F1AD1BF
:10517000A54205D954F8040B01F068FDAC42F9D3FF
:10518000B668002ED9D1009B029A01339A4200934F
:10519000CCD1039805F0D8FB07B0BDE8F08F756857
:1051A000B9F1000FE4D02B1B51469B102246084852
:1051B00004F08AFE0AF1010ADAE7012005F09EFBFD
:1051C0000590059805F0C0FB07B0BDE8F08F00BF63
:1051D0008C3C0100100E002010B5074C204604F056
:1051E0000DF92046054A06490EF02CF90548BDE8A0
:1051F000104009F09DB800BF1802002000000020F8
:105200000952000068080020264B03F1340270B5F3
:1052100004464260036000F20460234E002503F060
:10522000F1FB04F5B86003F0AFFA04F2AC50C4F837
:10523000AC65A4F8B25504F02FFD04F28450C4F814
:105240008465A4F88A5504F027FD184BC4F874351A
:1052500004F2745005F028FC04F25C5007F08EFB59
:1052600004F2445007F08AFB04F2EC4003F0C6FC61
:1052700004F58B600AF0D0F804F1580008F030FD16
:1052800004F1280006F03AFF04F10C00E6606582A4
:1052900004F002FD201D6660658104F0FDFC2046DF
:1052A00070BD00BF18420100643C0100A04801002D
:1052B000A0F10400A8E700BF274B03F1340270B54A
:1052C00004464260036000F20460244E002503F0AF
:1052D00099FB04F5B86003F057FA04F2AC50C4F837
:1052E000AC65A4F8B25504F0D7FC04F28450C4F8BD
:1052F0008465A4F88A5504F0CFFC194BC4F87435C2
:1053000004F2745005F0D0FB04F25C5007F036FB59
:1053100004F2445007F032FB04F2EC4003F06EFC60
:1053200004F58B600AF078F804F1580008F0D8FC16
:1053300004F1280006F0E2FE04F10C00E66065824C
:1053400004F0AAFC201D6660658104F0A5FC2046DF
:105350000EF062F8204670BD18420100643C010066
:10536000A0480100A0F10400A6E700BF2DE9F0412C
:1053700082B016461F4604460D4600F07DF838B14F
:1053800032462946204602B0BDE8F04100F088B818
:105390000F2CBFB216D028200EF040F8A1B28046E4
:1053A00000970A4BAAB205F0FFFA4146084808F0F8
:1053B00059FA0028E4D0404605F00EFB40460EF0B6
:1053C0002BF8DDE7C02FE6D0DAE700BF0D4F000075
:1053D00070020020FFF744BE03F0FEBB05F050BB97
:1053E00000B585B0D3B28AB281B2684608F080FFBA
:1053F00005B05DF804FB00BF002B08BF1023FFF7CA
:10540000B5BF00BF014B5888704700BF6808002037
:10541000014B9868704700BF680800204FF0FF31CB
:10542000014800F08DB800BF983C010003F0CEBBEE
:10543000704700BF18B181880630FFF73BBE704748
:10544000704700BF80880A3080087047704700BFEF
:10545000063070478088704783888B4226BF0630AD
:1054600040180020704700BF0320704740680B3091
:105470008008704780887047084B1B685BB15A688A
:10548000904201D0002AF8D14A1C04D09A68914277
:1054900001D0002AF1D11846704700BF94080020BF
:1054A000F0B5154E336883B013B90AE01B6843B1F9
:1054B0005C688442FAD19C688C42F7D1DA6003B010
:1054C000F0BD0446102017460D4601F087FE034646
:1054D00020B100221A605A609A60DA601846326879
:1054E000019383E83400012140F80C7F01F0CCFEE9
:1054F000019B336003B0F0BD9408002070B50D1E11
:10550000064615DB0DB90C4870BDE81D01F0B2FD73
:10551000044608B1094B2360A58026B131462A46CE
:10552000A01D0DF0B3FF25440023AB71204670BDD4
:105530000EF003F80546E5E7EC3D0100F43C010000
:10554000FFF7DCBF70B50D1E12DD064605F1080041
:1055500001F090FD044608B1084B236065602A46BF
:10556000314604F108002EB10DF090FF204670BDC9
:10557000034870BD0DF0AFFF204670BD603D0100D7
:10558000E03D0100014B1860704700BF040000209F
:10559000034A044B116803FB00F048401060704759
:1055A00004000020CB5725CA30B40E4D2A680446AB
:1055B00021460020930983EAD273534083EA1213F1
:1055C00083EA92035208534042EAC37202F0010395
:1055D000490843EA4000EDD18442E9D32A6030BC57
:1055E000704700BF0400002000487047EC3D0100F8
:1055F00000B583B002AB0022ADF8042003F8040D1F
:1056000001211846FFF77AFF03B05DF804FB00BFE5
:105610002DE9F0410D4608B304461C4B11B39842E6
:1056200029D09D4216D0A688B5F8048006EB080163
:105630000020FFF763FF831DA11D32460746184671
:105640000DF024FF42463044A91D0DF01FFF3846DF
:10565000BDE8F08127463846BDE8F0810C4C61B1C9
:105660000A4BDEE798420FD08688094D06F569514E
:105670004FF46958DCE70F46E9E74FF469582546CF
:1056800046464FF4E941D3E7014FE0E7EC3D010026
:10569000403E0100884219D030B483888D889D42F5
:1056A00028BF1D4605310530002310F8014F11F8C1
:1056B000012F944203F1010304D1AB42F5D900203C
:1056C00030BC704704DB012030BC704700207047BD
:1056D0004FF0FF30F4E700BF80887047002A16DDE6
:1056E00010B483880029BCBFC91821EAE1715C1A93
:1056F000A24202DB002C0CDD22468B4286BF063024
:105700004018002011465DF8044BFFF7F7BE034830
:10571000704702485DF8044B704700BFEC3D010044
:1057200078B371B32DE9F047858822EAE272AA4284
:1057300023D200F1060818EB0204A5EB02058F88BE
:105740001BD0BD4219D391F8069001F1060A02E080
:10575000AF42344611D823784B4505F1FF3504F1AB
:105760000106F5D13A46514620460DF080FE00284C
:10577000EED1A4EB0800BDE8F0874FF0FF30BDE8A4
:10578000F0874FF0FF30704708B5FFF7C9FF0130D1
:1057900018BF012008BD00BF80F00100704700BFA6
:1057A00038B50C1E034612D1002845D002460B46E0
:1057B00004460D460DF088FB00283FD10C2001F077
:1057C00059FC08B11E4B03604460856038BDC4F3CA
:1057D0000A55A5F2FF321D2A25D8142A0DDC00280F
:1057E000E4D1A5F2F33514FA05F3DFD1E002C2F1FA
:1057F0001F0240F00040D0400EE0A5F2134510FA21
:1058000005F5D3D1E002C2F11F0140F00040C2F122
:105810003402C840D3401843002CB8BF4042400077
:1058200040F0010038BD1E2AC0D10028BED1054B72
:105830009C42BBD1044838BD012038BD0E2038BD84
:10584000903D01000000D0C1010000802DE9F04131
:10585000054682B0841D204601A9FAF7D1FCAA882A
:10586000019B1444A34208D0204F002630463946FD
:10587000FFF796FF02B0BDE8F08100220023064644
:105880000F460DF0EFFA0028F0D127F00045304622
:1058900029464FF0FF32164B34464FF001080DF009
:1058A00013FB40B94FF0FF32114B304629460DF043
:1058B00001FB00B9804618F0FF0FD5D100224FF44C
:1058C0008013204629464FF001080DF0FDFA38B943
:1058D0002046294600224FF480130DF0CDFA18B16E
:1058E00018F0FF0FC2D0BFE78046F9E70000F87F4D
:1058F000FFFFEF7F08B50CF0E7FFBDE80840FFF7BA
:105900004FBF00BF01448879400040F0010070475C
:1059100020B1002902DB8288914201DB0E20704712
:10592000FFF7F0BF20B1002902DB8288914201DB42
:105930000E48704710B582B0FFF7E4FF0E2804460A
:1059400011D0C30703D440F2713005F09FF802A8CC
:1059500000236410ADF80430012100F8044DFFF776
:10596000CDFD02B010BD014802B010BDEC3D0100FC
:1059700008B50CF0BBFFBDE80840FFF711BF00BF42
:105980004300B0EB630F01D0FFF7B4BF43F0010059
:10599000704700BFB0F1804F08B503D2400040F01F
:1059A000010008BD0CF080FFBDE80840FFF7F8BE1D
:1059B000002814BF42200A20704700BF08B5FAF73C
:1059C0000BFEBDE80840FFF7EBBE00BF01FB00F097
:1059D000704700BF90FBF1F0704700BF10B50C207E
:1059E00001F048FB044608B102F06AFB204610BDF6
:1059F00000897047043002F0D1BA00BF03460A465E
:105A00000430198902F0AABA043002F0D9BA00BFF2
:105A100003894268994234BF52F821000020704740
:105A2000043002F09BBA00BF043002F0D7BA00BFC6
:105A3000043002F0F9BA00BF024B1B68588CC0005A
:105A4000704700BFDC080020704700BF002070478F
:105A500038B5184B1B688BB15C6A7CB123689842DF
:105A600023D05BB1002300E042B1023354F823207D
:105A70008242F9D101339B00E05838BD0D460446FF
:105A8000FFF7E4FF78B103689C4210D05BB10023BC
:105A900000E042B1023350F823209442F9D101339F
:105AA0009B00C05838BD284638BD0423E4E70423D2
:105AB000F7E700BFDC08002040687047416070478E
:105AC00010B5082001F0D6FA044608B102F002FB36
:105AD000204610BD70B50C1E054616460EDB8388A9
